:100000000C9447020C947D020C947D020C947D02AA
:100010000C947D020C947D020C94651B0C947A1B4D
:100020000C947D020C947D020C94511A0C947D0268
:100030000C947D020C947D020C94680B0C947D0250
:100040000C947D020C947D020C947D020C947D0234
:100050000C947D020C947D020C947D020C947D0224
:100060000C947D020C947D020C947D020C947D0214
:100070000C947D020C947D020C947D020C947D0204
:100080000C947D020C947D020C947D020C947D02F4
:100090000C947D020C947D020C947D020C947D02E4
:1000A0000C947D020C947D020C947D020C947D02D4
:1000B0000C947D020C947D020C947D020C947D02C4
:1000C0000C947D020C947D020C947D020C947D02B4
:1000D0000C947D020C947D020C947D020C947D02A4
:1000E0000C947D020C947D020C94D4110C947D022E
:1000F0000C941C120C947D020C947D020C947D02D5
:100100000C94540B0C947D020C947D020C947D0293
:100110000C947D020C947D020C947D020C947D0263
:100120000C947D020C947D020C947D020C947D0253
:100130000C947D020C947D020C947D020C947D0243
:100140000C947D020C947D020C947D020C947D0233
:100150000C947D020C947D020C947D020C947D0223
:100160000C94A3110C947D020C9405120C947D0246
:100170000C947D020C947D020C947D020C947D0203
:100180000C947D020C947D020C947D020C947D02F3
:100190000C947D020C947D020C947D020C947D02E3
:1001A0000C947D020C947D020C947D020C947D02D3
:1001B0000C947D020C947D020C947D020C947D02C3
:1001C0000C947D020C947D020C947D020C947D02B3
:1001D0000C947D020C947D020C947D020C947D02A3
:1001E0000C947D020C947D020C947D020C947D0293
:1001F0000C947D020C947D020C947D020A1720174A
:1002000042176E178A179917251AFB170A181A181A
:10021000251A2A189F18AD18251ACB19DC19251A8A
:100220009119B619E6198219251AE6190C94CB19F9
:100230000C9438120C942B120C9424130C94AD18BB
:100240000C948D120C94251A0C9485040C94E312D2
:100250000C9482190C94A8120C947F020C94861EA4
:100260000C949C130C94F7120C94C7130C94CF139A
:100270000C941A180C949F180C94820B0C94641212
:100280000C94510C0C946E170C9491190C94241E20
:100290000C9442170C94FB170C94B6190C9420176D
:1002A0000C94DC190C9499170C940A170C94A51C47
:1002B0000C94380C0C940A180C948A170C94511353
:1002C0000C94641D0C94E6190C942A186E616E004F
:1002D000696E66004E414E494E495459494E46CDCD
:1002E000CCCC3D0AD7233C17B7D13877CC2B3295ED
:1002F00095E6241FB14F0A000020410000C84200CB
:10030000401C4620BCBE4CCA1B0E5AAEC59D740094
:10031000407A10F35A00A0724E18090010A5D4E8D4
:100320000000E87648170000E40B54020000CA9A67
:100330003B000000E1F505000080969800000040B9
:10034000420F000000A086010000001027000000FE
:1003500000E803000000006400000000000A000044
:100360000000000100000000002C76D888DC674FF8
:100370000823DFC1DFAE59E1B1B796E5E3E453C628
:100380003AE651997696E8E6C28426EB898C9B6220
:10039000ED407C6FFCEFBC9C9F40F2BAA56FA5F4CA
:1003A00090055A2AF75C936B6CF9676DC11BFCE0F2
:1003B000E40D47FEF520E6B500D0ED902E03009445
:1003C0003577050080841E080000204E0A000000DA
:1003D000C80C333333330F986E12831141EF8D21E4
:1003E00014893BE65516CFFEE6DB18D1844B381B4B
:1003F000F77C1D901DA4BBE424203284725E228110
:1004000000C9F124ECA1E53D270000000000000038
:1004100000010101010102020203030304040505B6
:100420000607070808090A0B0B0C0D0E0F10111216
:100430001314151618191A1B1D1E1F2122242527F7
:10044000282A2C2D2F31333537383A3C3E4143454D
:1004500047494B4E505255575A5C5F616467696C0F
:100460006F7275787A7D8084878A8D9093979A9D34
:10047000A1A4A8ABAFB3B6BABEC1C5C9CDD1D5D9B9
:10048000DDE1E5E9EEF2F6FBFF00241E861E1124F5
:100490001FBECFEFCDBFDFE3DEBF00E00CBF18BE55
:1004A00019BE1ABE1BBE12E2A0E0B0E2E8EBF5E511
:1004B00000E00BBF02C007900D92AA37B107D9F731
:1004C0001BBE24E2AAE7B2E201C01D92AA3AB2071B
:1004D000E1F712E0C6E4D2E000E006C0219701098E
:1004E000802FFE010E94C922C534D10780E0080791
:1004F000A9F70E948E1E0C94CA2A0C9400002F9219
:100500003F924F925F926F927F928F929F92AF92A3
:10051000BF92CF92DF92EF92FF920F931F93CF93F0
:10052000DF931F92CDB7DEB78C016B01DC0119960A
:100530008D919C911A97892BE9F4F12C8F2D90E0E5
:10054000F60101900020E9F73197EC19FD098E17AB
:100550009F0708F0B8C0D601A80FB91FF801808125
:100560009181FC01208131816C91C801F9011995BB
:10057000F394E4CFFB0101900020E9F731973F01AC
:10058000661A770A812C912C1801F8E62F0E311C7F
:10059000D1018C9190E0881699060CF092C0D80198
:1005A0001996ED91FC911A9780818111FDCFC801B8
:1005B0000E9483112601A12CB12CE12CF12C80E0AA
:1005C000A614B7040CF066C0811164C0F2016191F9
:1005D0002F01D801ED91FC910190F081E02DC8012F
:1005E0001995D8011996ED91FC911A97B3E0B08353
:1005F000EFEFAE1ABE0ABE016F5F7F4FC8010E94C7
:100600006711882349F1F601EE0DFF1D9081898164
:100610009817F9F0D801ED91FC910280F381E02D5B
:1006200067E071E2C8011995D801ED91FC91019044
:10063000F081E02D6981C8011995D801ED91FC91F7
:100640000280F381E02D6AE071E2C801199581E032
:1006500021C0BFEFEB1AFB0AD8011996ED91FC916E
:100660001A97908181E0992309F4AACFA8CF81112C
:1006700020C0BE016F5F7F4FC8010E9467118111CA
:100680000DC0D8011996ED91FC911A97908181E0E7
:10069000911180E0E614F70454F30BC0F601EE0D5F
:1006A000FF1D90818981981304C0BFEFEB1AFB0AEC
:1006B000E8CFBFEF8B1A9B0AEA14FB0409F068CF5E
:1006C00002C080E001C081E00F90DF91CF911F91C7
:1006D0000F91FF90EF90DF90CF90BF90AF909F90E1
:1006E0008F907F906F905F904F903F902F900895E4
:1006F000CF93DF93EC0180E691E288839983CE016A
:10070000825B9F4F0E94910BCE01DF91CF910C94A1
:100710001C0DFC01E35BFF4F208122602083339698
:10072000608371830895FC01E35BFF4F20812D7F7F
:10073000208333961082118208950F931F93CF93D5
:10074000DF938B01EC01C95BDF4FBE01865B9F4FDE
:100750000E94E928B801CE01DF91CF911F910F913E
:100760000C94E928BC01665B7F4F895B9F4F0C941A
:10077000E928CF93DF93DC01AC59BF4FED91FC9199
:10078000119720E2208320E030E08E5A9F4FCD91D8
:10079000DC911197FC0140815181FA01E20FF31FB6
:1007A00040814B832F5F3F4F2031310581F7FB01A3
:1007B000CB014096CD91DC91119721912A838E1720
:1007C0009F07C1F7ED91FC9180E8808380E0DF9185
:1007D000CF910895CF93DF93DC01AC59BF4FCD91FA
:1007E000DC911197298120FFFDCFFC01EC5AFF4FCE
:1007F0002B812193EA17FB07D9F7FC01EA59FF4F38
:1008000080818260808380E0DF91CF9108950F9393
:100810001F93CF938C010E94B903C82F811104C08C
:10082000C8010E94EA0301C0CFEF8C2FCF911F9126
:100830000F910895CF93DF93CDB7DEB76097CDBF0B
:10084000DEBFFC01EE5AFF4F60837183749621E096
:100850002083329720EC30E020833183BE016F5F2C
:100860007F4F0E9407046096CDBFDEBFDF91CF911E
:100870000895CF93DF93FC01EA59FF4F208121FFB8
:100880002FC03297A081B18120E32C93AFE1B3E078
:100890001197F1F700C00000A081B18120E12C93F5
:1008A000DC01AC5ABF4FC081D1818D918B83AE17D3
:1008B000BF07C9F7DB01CB014096C081D1812D91E3
:1008C0002A838A179B07C9F7A081B18180E98C939D
:1008D0000190F081E02D818180FFFDCF80E001C09B
:1008E0008FEFDF91CF9108959B01205F3F4FDC0197
:1008F000AC59BF4FED91FC9111979281FB019193FF
:10090000BF01E217F307B1F708952F923F924F927C
:100910005F926F927F928F929F92AF92BF92CF928F
:10092000DF92EF92FF920F931F93CF93DF93CDB798
:10093000DEB7AD97CDBFDEBF4C01F62EB72E342EFD
:10094000552E122F7C2C1FA218A6FE01B99683E00B
:10095000DF011D928A95E9F7A62FB72FFD010190BF
:100960000020E9F73197EA1BFB0B4E2F1E162CF4E3
:1009700041E04E0F3CE3632E01C0612C6401BDE4F5
:10098000CB0ED11CF601808181FF44C0339680815B
:100990009181BE016F5F7F4F009721F1482EFCA629
:1009A000BDA69B01FC015E2F541954175CF42190E5
:1009B000ACA5BDA55D91ACA7BDA75225D9015D939E
:1009C0009D01F1CF403114F5242F042E000C330B80
:1009D000FC01E20FF31F5081FB01E20FF31F508374
:1009E0004F5FF0CFEF2DFB2DDB018A2F861B841785
:1009F0001CF481918D93F9CF403144F4FB01E40F55
:100A0000F11D47FDFA9510824F5FF6CFC4010E9499
:100A1000B90340E2F601808182FD03C029E0422E45
:100A200002C09DE0492E440E9EEA910F923010F0D4
:100A3000123739F4F3E04F0E0FA3E8A679A6AAA661
:100A40001BA681FF3FC0C4010E94EA039E012F5FE5
:100A50003F4F7901B901C4010E947404AE014F5E99
:100A60005F4FCE014F96F701DA012E91AD01DC0107
:100A70002C930297E416F506B9F79E012F5D3F4FC0
:100A80008081982F92959F709F5B90838F708F5B72
:100A9000818332962E173F0799F719A21F926F9202
:100AA000FF92EF92CE0187969F938F931F921F9391
:100AB000C401895B9F4F9F938F935F923F92F60192
:100AC000808112C01F926F92BF92FF929E01295D9A
:100AD0003F4F3F932F931F921F939401295B3F4FEA
:100AE0003F932F935F923F921F928F93842D042CFC
:100AF000000C990B9F934F928CE091E29F938F9300
:100B0000C4010B969F938F930E946D29CDBFDEBFCA
:100B100064019EE4C90ED11CC6010E94920B84019F
:100B2000055F1F4FB801C6010E94A70B7E01A2E21C
:100B3000EA0EF11CB701C6010E94BB0BFF92EF92B7
:100B40001F930F9380E291E29F938F931F930F93D4
:100B50000E946D29C4010E949303D401ED91FC9180
:100B60000280F381E02DB801C4011995CDBFDEBF2D
:100B7000AD96CDBFDEBFDF91CF911F910F91FF905A
:100B8000EF90DF90CF90BF90AF909F908F907F902D
:100B90006F905F904F903F902F9008952F923F92CB
:100BA0004F925F926F927F928F929F92AF92BF927D
:100BB000CF92DF92EF92FF920F931F93CF93DF9329
:100BC000CDB7DEB7AB97CDBFDEBF3C014A011901FF
:100BD0001E2D5C2C4A2C1FA218A6FE01B99683E09C
:100BE000DF011D928A95E9F75301BDE4AB0EB11CFC
:100BF000F50180819E012F5F3F4F790181FD02C089
:100C000020E04DC0F301E05BFF4F208131812115D1
:100C1000310511F420E024C040E0842F90E08815D5
:100C2000990578F4F701E80FF91FD901A80FB91F4A
:100C3000860F971F5C91DC018C91852780834F5F25
:100C4000ECCF882D803120F5482F50E0F901E40FDA
:100C5000F51F9081F701E40FF51F90838F5FF2CFAE
:100C6000822F90E08815990550F4F701E80FF91FDD
:100C7000DB01A80FB91F8C9180832F5FF1CF882DE6
:100C8000803130F4F701E80FF11D10828F5FF8CF4B
:100C9000B701C3010E94B90320E230E012C0822FE5
:100CA00090E08815990550F4F701E80FF91FDB0172
:100CB000A80FB91F8C9180832F5FF1CF9401220F71
:100CC000331FF5018081690182FD04C0FAE0CF0E77
:100CD000D11C03C09EE0C90ED11C9EEA900F923039
:100CE00010F0023749F4A3E0CA0ED11C1FA358A686
:100CF00049A694E59AA71BA681FF07C0C3010E94DD
:100D0000EA03B701C3010E9474042FEF280D27FDE9
:100D100010C0822F022E000C990BF701E80FF91F6B
:100D20003081880F991FF701E80FF91F3083215098
:100D3000EECF880C991C90E0E92FF0E0E815F9055A
:100D4000A0F4D701AE0FBF1F8C91282F22952F70D2
:100D50002F5B2C9322E030E02C0F3D1FE20FF31F9E
:100D60008F708F5B80839E5FE7CFF701E80DF91DE1
:100D7000108243013BE0830E911CFF92EF92CE0163
:100D800087969F938F931F920F93C301895B9F4F09
:100D90009F938F933F922F92D5018C911F928F93A7
:100DA000DF92CF9287E291E29F938F939F928F92EF
:100DB0000E946D297301BEE4EB0EF11CC7010E9475
:100DC000920BB401C7010E94A70B8E010E5D1F4F4D
:100DD000B801C7010E94BB0B1F930F939F928F9284
:100DE00080E291E29F938F939F928F920E946D2950
:100DF000C3010E949303D301ED91FC910280F38122
:100E0000E02DB401C3011995CDBFDEBFAB96CDBFB8
:100E1000DEBFDF91CF911F910F91FF90EF90DF9098
:100E2000CF90BF90AF909F908F907F906F905F908A
:100E30004F903F902F9008959B01205F3F4FDC0122
:100E4000AC59BF4FED91FC9111979381FB019193A8
:100E5000BF01E217F307B1F70895AF92CF92EF9277
:100E60000F93DC01ED91FC910480F581E02DAC2C19
:100E7000CE2CE02E022F23E519950F91EF90CF9005
:100E8000AF9008952F923F924F925F926F927F9210
:100E90008F929F92AF92CF92EF92FF920F931F93F8
:100EA000CF93DF934C012B011A013901F02E8A01F7
:100EB000000F111FC80101960E943A24EC0120E0A6
:100EC000822F90E08215930598F4FC01EE0FFF1F2E
:100ED000D201A80FB91F8C91EC0FFD1F982F92958E
:100EE0009F709F5B90838F708F5B81832F5FE8CFB4
:100EF000FE01E00FF11F1082D401ED91FC910480FE
:100F0000F581E02D0F2D23E5A301BE01C401199544
:100F1000182FCE010E94D224812FDF91CF911F91F3
:100F20000F91FF90EF90CF90AF909F908F907F9018
:100F30006F905F904F903F902F900895AF92CF9217
:100F4000EF920F93DC01ED91FC910480F581E02D8F
:100F50003FE3A32EC02EE22E042F23E5AB0166E271
:100F600071E219950F91EF90CF90AF900895AF92E5
:100F7000CF92EF920F93DC01ED91FC910480F5810B
:100F8000E02D2DE2A22E3DE2C32EADE2EA2E0DE2CF
:100F900029E419950F91EF90CF90AF900895AF92FB
:100FA000CF92EF920F93DC01ED91FC910480F581DB
:100FB000E02D2DE2A22E3DE2C32EADE2EA2E0DE29F
:100FC00021E419950F91EF90CF90AF900895AF92D3
:100FD000CF92EF920F93DC01ED91FC910480F581AB
:100FE000E02D2DE2A22E3DE2C32EADE2EA2E0DE26F
:100FF00027E519950F91EF90CF90AF9008958F92BC
:101000009F92AF92BF92CF92EF920F931F93CF9385
:10101000DF93CDB7DEB72A97CDBFDEBF4C01122FCD
:101020007F936F935F934F938AE391E29F938F93A4
:101030009E012F5F3F4F59013F932F930E946D29CF
:1010400086E4C82E212F4FE351E2B501C4010E946E
:101050002D07CDBFDEBF2A96CDBFDEBFDF91CF917A
:101060001F910F91EF90CF90BF90AF909F908F9076
:1010700008958F929F92AF92BF92CF92EF920F936B
:101080001F93CF93DF93CDB7DEB72A97CDBFDEBFD7
:101090004C01122F7F936F935F934F938AE391E2FA
:1010A0009F938F939E012F5F3F4F59013F932F9343
:1010B0000E946D2986E4C82E212F4FE351E2B5012D
:1010C000C4010E942D07CDBFDEBF2A96CDBFDEBF73
:1010D000DF91CF911F910F91EF90CF90BF90AF9084
:1010E0009F908F900895CF92EF920F933FE3C32E7E
:1010F000E22E042F262F4FE351E266E271E20E94B6
:101100002D070F91EF90CF900895AF92CF92EF926D
:101110000F93DC01ED91FC910480F581E02D34E525
:10112000A32EC02EE22E042F23E54FE351E21995A2
:101130000F91EF90CF90AF9008958F929F92AF92C2
:10114000BF92CF92EF92FF920F931F93CF93DF93B3
:10115000CDB7DEB72A97CDBFDEBF4C01142FF22EDC
:101160001F926F9382E491E29F938F93CE01019639
:101170005C019F938F930E946D2984E5C82EE02E19
:101180000F2D212F4FE351E2B501C4010E942D071D
:101190000F900F900F900F900F900F902A96CDBF49
:1011A000DEBFDF91CF911F910F91FF90EF90CF9015
:1011B000BF90AF909F908F9008958F929F92AF9223
:1011C000BF92CF92EF92FF920F931F93CF93DF9333
:1011D000CDB7DEB72A97CDBFDEBF4C01142FF22E5C
:1011E0007F936F9386E491E29F938F93CE01019654
:1011F0005C019F938F930E946D2984E5C82EE02E99
:101200000F2D212F4FE351E2B501C4010E942D079C
:101210000F900F900F900F900F900F902A96CDBFC8
:10122000DEBFDF91CF911F910F91FF90EF90CF9094
:10123000BF90AF909F908F9008958F929F92AF92A2
:10124000BF92CF92EF92FF920F931F93CF93DF93B2
:10125000CDB7DEB72A97CDBFDEBF4C01142FF22EDB
:101260007F936F9389E491E29F938F93CE010196D0
:101270005C019F938F930E946D2984E5C82EE02E18
:101280000F2D212F4FE351E2B501C4010E942D071C
:101290000F900F900F900F900F900F902A96CDBF48
:1012A000DEBFDF91CF911F910F91FF90EF90CF9014
:1012B000BF90AF909F908F900895AF92CF92EF9292
:1012C0000F93CF93DF93A22FC11002C022E701C07A
:1012D00022E5EB013881332311F034E501C03FE30F
:1012E000EC01E881F9810480F581E02DA32ECE2C5C
:1012F000E02E0A2F1995DF91CF910F91EF90CF90AB
:10130000AF900895CF92EF920F93CE2CE02E022F44
:10131000242FAB0166E271E20E945D090F91EF900C
:10132000CF9008954F925F926F927F928F929F928B
:10133000AF92BF92CF92DF92EF92FF920F931F93E3
:10134000CF93DF93CDB7DEB76997CDBFDEBF3C014A
:101350002B01142FB22EFF92EF92DF92CF928CE4EA
:1013600091E29F938F93CE0101964C019F938F93AF
:101370000E946D29CA2CE02E0B2D212FA201B40151
:10138000C3010E945D09CDBFDEBF6996CDBFDEBF40
:10139000DF91CF911F910F91FF90EF90DF90CF9051
:1013A000BF90AF909F908F907F906F905F904F9085
:1013B00008955F926F927F928F929F92AF92BF92A9
:1013C000CF92DF92EF92FF920F931F93CF93DF9311
:1013D000CDB7DEB76997CDBFDEBF4C013B01142FFF
:1013E000522EFF92EF92DF92CF9280E591E29F938F
:1013F0008F93CE0101965C019F938F930E946D297C
:1014000084E5C82EE02E052D212FA301B501C401CE
:101410000E942D07CDBFDEBF6996CDBFDEBFDF9135
:10142000CF911F910F91FF90EF90DF90CF90BF90E1
:10143000AF909F908F907F906F905F9008955F9294
:101440006F927F928F929F92AF92BF92CF92DF92D4
:10145000EF92FF920F931F93CF93DF93CDB7DEB739
:101460006997CDBFDEBF4C013B01142F522EFF9276
:10147000EF92DF92CF9284E591E29F938F93CE011A
:1014800001965C019F938F930E946D2984E5C82E7D
:10149000E02E052D212FA301B501C4010E942D07C7
:1014A000CDBFDEBF6996CDBFDEBFDF91CF911F916B
:1014B0000F91FF90EF90DF90CF90BF90AF909F90F3
:1014C0008F907F906F905F9008953F924F925F92C0
:1014D0006F927F928F929F92AF92BF92CF92DF9244
:1014E000EF92FF920F931F93CF93DF93CDB7DEB7A9
:1014F0006997CDBFDEBF3C012B01142F322EFF9226
:10150000EF92DF92CF92BF92AF929F928F9287E538
:1015100091E29F938F93CE0101965C019F938F93ED
:101520000E946D2984E5C82EE02E032D212FA201F3
:10153000B501C3010E942D07CDBFDEBF6996CDBFA7
:10154000DEBFDF91CF911F910F91FF90EF90DF9061
:10155000CF90BF90AF909F908F907F906F905F9053
:101560004F903F9008954F925F926F927F928F922B
:101570009F92AF92BF92CF92DF92EF92FF920F9322
:101580001F93CF93DF93CDB7DEB76497CDBFDEBF98
:101590003C012B01142FB22EFF92EF92DF92CF92DB
:1015A00084E591E29F938F93CE0101964C019F9326
:1015B0008F930E946D29CA2CE02E0B2D212FA201A2
:1015C000B401C3010E945D09CDBFDEBF6496CDBFEB
:1015D000DEBFDF91CF911F910F91FF90EF90DF90D1
:1015E000CF90BF90AF909F908F907F906F905F90C3
:1015F0004F90089589599F4FFC0160830895895940
:101600009F4FFC018081089561110CC08091690693
:1016100082608093690684E080936A0688E1809303
:10162000720608958091890688608093890680E417
:1016300080938B0688E180939606089561110BC014
:10164000809169068D7F8093690610926A068FE10A
:1016500080937206089580918906877F809389061A
:1016600010928B068FE180939606089582E0809316
:10167000040886E080930008109201088091060813
:10168000611109C081608093060885E2809320087B
:1016900080932608089584608093060885E28093ED
:1016A00021088093270808951F920F920FB60F927A
:1016B000112408B60F9218BE8F9383E08093B8224E
:1016C0008F910F9008BE0F900FBE0F901F9018952E
:1016D0001F920F920FB60F92112408B60F9218BEE8
:1016E0008F938091B822882329F08091B82281506D
:1016F0008093B8228F910F9008BE0F900FBE0F906D
:101700001F9018950C94510CE0EDF0E0DC01ED9386
:10171000FC93119720E82083ED91FC9181E0808378
:1017200008950895DC01ED91FC91119720E8208344
:10173000ED91FC9181E080830895DC01ED91FC91B5
:1017400063830895DC01ED91FC9163830895DC01CE
:10175000FB019191BF01992329F0ED91FC91119723
:101760009383F6CF0895DC01ED91FC91258184816E
:1017700090E0922B0895CF93DF93EB010E94B30B7F
:101780009F938F9386E691E29F938F93DF93CF93FE
:101790000E946D290F900F900F900F900F900F9057
:1017A000DF91CF910895EF92FF920F931F93CF9304
:1017B000DF93CDB7DEB72597CDBFDEBF7B010E949B
:1017C000B30B9F938F9386E691E29F938F938E0145
:1017D0000F5F1F4F1F930F930E946D29F801D701D0
:1017E0009E012B5F3F4F0F900F900F900F900F9027
:1017F0000F9081E041919D91491380E0E217F3073A
:10180000C9F72596CDBFDEBFDF91CF911F910F9114
:10181000FF90EF900895CF93DF93EA01462FFB01ED
:101820003E2F341B321740F43191DC016D917C91D5
:10183000DB0113963C93F4CF0E94B30BFE01349668
:1018400041E0229130E021543109BC016F707727CB
:101850002617370709F040E024E0969587952A95EA
:10186000E1F7CE17DF0769F7842FDF91CF91089555
:101870000F931F93CF93DF93EC018B01F8016191DC
:101880008F01662341F0E881F9810190F081E02D1C
:10189000CE011995F3CF81E0DF91CF911F910F9188
:1018A0000895FC01828181110EC08091680680FD3F
:1018B000FCCF81E080936506FAE6FA95F1F700C067
:1018C0006093A00908958091A10A85FFFCCF6093E1
:1018D000A00A089527E831E2FC0120833183628366
:1018E0000895FC018281811122C088E08093610605
:1018F00084E08093620683E08093610691E0909398
:10190000660682E080936606AEE4B3E2A483B58304
:10191000A2E1B3E2A783B08778E17093A40974E1F0
:101920007093A309909366068093660617C080E8BB
:101930008093810680E48093820680E2809385060E
:1019400081E193E28483958385ED92E2878390879A
:1019500088E18093A40A80E18093A30A8CE38383C7
:101960001682A481B5811C9270E0211580E83807A9
:1019700081E5480781E05807D1F1A0F4203884E8D8
:1019800038078EE14807510551F12115304449418E
:101990005140E9F5DB01A55EBF4D9C91DB01A253EF
:1019A000BD4D3CC0211588E4380788EE480781E02A
:1019B000580769F1211580E8380782E3480782E07B
:1019C0005807E9F021153105424C514001F5DB0182
:1019D000A35FBF4D9C91DB01A054BD4D1FC0DB0137
:1019E000A75DBF4D9C91DB01AE5DBF4D17C0DB0114
:1019F000AC5EBF4D9C91DB01A953BD4D0FC0DB0117
:101A0000AA5FBF4D9C91DB01A754BD4D07C0DB0110
:101A1000A95CBF4D9C91DB01A05DBF4D8C912281E3
:101A2000211105C09093A6098093A709089590936A
:101A3000A60A8093A70A08950895CF93DF93EC0137
:101A4000E881F9810280F381E02D1995E881F9811F
:101A50000280F381E02D6BE671E2CE01DF91CF9140
:101A60001994DC01ED91FC910280F381E02D6BE68D
:101A700071E219948F929F92AF92BF92CF92DF92B0
:101A8000EF92FF920F931F93CF93DF93DC010D91A1
:101A90001C914F3FBFEF5B076B077B0709F44BC1FE
:101AA0006A017B01EC01CB01BA0120E03AEC4AE982
:101AB0005BE30E948822B22E832E942EA52E60E333
:101AC000620FD801ED91FC91CE0119952B2D382D87
:101AD000492D5A2D60E07AEC8AE99BE30E9450225E
:101AE000C61AD70AE80AF90AC701B60120E031EEA2
:101AF00045EF55E00E948822122FA32EB42E052F09
:101B000060E3620FE881F9810190F081E02DCE0160
:101B10001995212F3A2D4B2D502F60E071EE85EF56
:101B200095E00E945022C61AD70AE80AF90AC701AE
:101B3000B60120E836E948E950E00E948822122FD9
:101B4000A32EB42E052F60E3620FE881F981019086
:101B5000F081E02DCE011995212F3A2D4B2D502FDC
:101B600060E876E988E990E00E945022C61AD70A18
:101B7000E80AF90AC701B60120E432E44FE050E078
:101B80000E948822122FA32EB42E052F60E3620F2D
:101B9000E881F9810190F081E02DCE011995212F86
:101BA0003A2D4B2D502F60E472E48FE090E00E94BC
:101BB0005022C61AD70AE80AF90AC701B60120EA74
:101BC00036E841E050E00E948822122FA32EB42E66
:101BD000052F60E3620FE881F9810190F081E02D2B
:101BE000CE011995212F3A2D4B2D502F60EA76E822
:101BF00081E090E00E945022C61AD70AE80AF90A4A
:101C0000C701B60120E137E240E050E00E9488229F
:101C1000122FA32EB42E052F60E3620FE881F98105
:101C20000190F081E02DCE011995A0E1B7E2212FBE
:101C30003A2D4B2D502F0E94D222C61AD70AE80AFD
:101C4000F90AC701B60128EE33E040E050E00E94F7
:101C50008822122FA32EB42E052F60E3620FE88195
:101C6000F9810190F081E02DCE011995A8EEB3E045
:101C7000212F3A2D4B2D502F0E94D222C61AD70A5F
:101C8000E80AF90AC701B60124E630E040E050E076
:101C90000E948822122FA32EB42E052F60E3620F1C
:101CA000E881F9810190F081E02DCE011995A4E63B
:101CB000B0E0212F3A2D4B2D502F0E94D222C61A70
:101CC000D70AE80AF90AC701B6012AE030E040E085
:101CD00050E00E948822122FA32EB42E052F60E31D
:101CE000620FE881F9810190F081E02DCE01199514
:101CF000AAE0B0E0212F3A2D4B2D502F0E94D22286
:101D0000A7019601261B370B480B590B60E3620FA6
:101D1000E881F9810190F081E02DCE01DF91CF9132
:101D20001F910F91FF90EF90DF90CF90BF90AF90F9
:101D30009F908F901994D8011296ED91FC91139772
:101D40006EE671E2DF91CF911F910F91FF90EF90BE
:101D5000DF90CF90BF90AF909F908F9019948F920B
:101D60009F92AF92BF92CF92DF92EF92FF920F932A
:101D70001F93CF93DF93EC016A017B01E881F98126
:101D80000190F081E02D77FF02C06DE201C06BE2AF
:101D9000CE011995E894F7F8A880B9808FEFC8169E
:101DA000D806E8068FE7F80609F446C1C701B60170
:101DB00020E03AEC4AE95BE30E94AA22122F832E2C
:101DC000942E052F60E3620FD501ED91FC91CE01B9
:101DD0001995212F382D492D502F60E076E385E6A7
:101DE00094EC0E945022C60ED71EE81EF91EC701B1
:101DF000B60120E031EE45EF55E00E94AA22122FF5
:101E0000A32EB42E052F60E3620FE881F9810190C3
:101E1000F081E02DCE011995212F3A2D4B2D502F19
:101E200060E07FE18AE09AEF0E945022C60ED71E42
:101E3000E81EF91EC701B60120E836E948E950E07E
:101E40000E94AA22122FA32EB42E052F60E3620F48
:101E5000E881F9810190F081E02DCE011995212FC3
:101E60003A2D4B2D502F60E879E687E69FEF0E94D0
:101E70005022C60ED71EE81EF91EC701B60120E487
:101E800032E44FE050E00E94AA22122FA32EB42E7B
:101E9000052F60E3620FE881F9810190F081E02D68
:101EA000CE011995212F3A2D4B2D502F60EC7DEB53
:101EB00080EF9FEF0E945022C60ED71EE81EF91E2B
:101EC000C701B60120EA36E841E050E00E94AA22AC
:101ED000122FA32EB42E052F60E3620FE881F98143
:101EE0000190F081E02DCE011995212F3A2D4B2D37
:101EF000502F60E679E78EEF9FEF0E945022C60ECA
:101F0000D71EE81EF91EC701B60120E137E240E006
:101F100050E00E94AA22122FA32EB42E052F60E3B8
:101F2000620FE881F9810190F081E02DCE011995D1
:101F3000A0EFB8ED212F3A2D4B2D502F0E94E0221B
:101F4000C60ED71EE81EF91EC701B60128EE33E003
:101F500040E050E00E94AA22122FA32EB42E052F9B
:101F600060E3620FE881F9810190F081E02DCE01FC
:101F70001995A8E1BCEF212F3A2D4B2D502F0E942F
:101F8000E022C60ED71EE81EF91EC701B60124E6E0
:101F900030E040E050E00E94AA22122FA32EB42E7F
:101FA000052F60E3620FE881F9810190F081E02D57
:101FB000CE011995ACE9BFEF212F3A2D4B2D502FB3
:101FC0000E94E022C60ED71EE81EF91EC701B60108
:101FD0002AE030E040E050E00E94AA22122F032FB6
:101FE0005A0160E3620FE881F9810190F081E02DF0
:101FF000CE011995A6EFBFEF212F302FA5010E942A
:10200000E022DC01CB018C0D9D1DAE1DBF1D60E3E8
:10201000680FE881F9810190F081E02DCE01DF9118
:10202000CF911F910F91FF90EF90DF90CF90BF90D5
:10203000AF909F908F901994D5011296ED91FC91DD
:1020400013976EE671E2CE01DF91CF911F910F9150
:10205000FF90EF90DF90CF90BF90AF909F908F90C8
:1020600019940895CF92DF92EF92FF920F931F93EE
:10207000CF93DF937C01062FD42EC22EC8E0D0E090
:1020800010E8D701ED91FC91802F81230190F08120
:10209000E02D811102C06D2D01C06C2DC701199575
:1020A0001695219771F7DF91CF911F910F91FF90B6
:1020B000EF90DF90CF9008954F925F926F927F9252
:1020C000AF92BF92CF92DF92EF92FF920F931F9346
:1020D000CF93DF935C012A013B01122FC0E2D0E0D5
:1020E000C12CD12CE12C90E8F92ED501ED91FC9179
:1020F000D301C2018C219D21AE21BF210190F0812D
:10210000E02D892B8A2B8B2B11F4612F01C0602FBE
:10211000C5011995F694E794D794C794219729F7A8
:10212000DF91CF911F910F91FF90EF90DF90CF90B3
:10213000BF90AF907F906F905F904F9008952F92D7
:102140003F924F925F926F927F928F929F92AF9247
:10215000BF92CF92DF92EF92FF920F931F93CF9394
:10216000DF93CDB7DEB70E891F89E88DF98D6E013B
:102170008AE1C80ED11C4AE0442E512C60816532A0
:1021800041F0662309F47DC03F019FEF691A790A87
:1021900010C03F01B2E06B0E711C61816436E1F04A
:1021A000683799F0633629F4F6016081C60102961A
:1021B0006C01D801ED91FC910190F081E02DC801F6
:1021C000199556016501F301D9CF20E1822E912C9A
:1021D00030E1E32EF12C07C08AE0882E912C90E1AB
:1021E000E92E97E2F92E5601B2E0AB0EB11CF601D2
:1021F000C080D180643651F5D7FE0CC0D194C19413
:10220000D108D801ED91FC910190F081E02D6DE2B3
:10221000C8011995CE14DF04C8F4C701B2010E94A9
:1022200060227B0162307105A8F7C6010E9460221E
:10223000DB01AE58BE4DF80180819181FC01208107
:1022400031816C91C801F9011995BCCFC601B70164
:102250000E9460221C01DB01AE58BE4DF801808156
:102260009181FC01208131816C91C801F90119959E
:102270006101C701B4010E9460227B01672B31F725
:10228000A1CF80E0DF91CF911F910F91FF90EF9050
:10229000DF90CF90BF90AF909F908F907F906F9086
:1022A0005F904F903F902F9008957F936F935F932F
:1022B0004F9324E531E23F932F939F938F930E9496
:1022C0009F108DB79EB708968DBF9EBF0895FC01E5
:1022D000A481B5819C918681981799F086818F5F42
:1022E000868396818381981301C016828681078038
:1022F000F085E02DE80FF11D8081FB01808381E0F6
:10230000089580E00895DC011496ED91FC911597F5
:10231000208116962C9308950F931F93CF93DF93EC
:102320001F92CDB7DEB78C01BE016F5F7F4FC80132
:102330000E9467118823C1F389810F90DF91CF91AB
:102340001F910F9108951F920F920FB60F921124B3
:1023500008B60F9218BE0BB60F921BBE8F939F93B9
:10236000EF93FF939091A009992389F080914E23D8
:102370008F5F80934E2380914E238C3311F4109203
:102380004E23E0914E23F0E0EE5EFC4D9083FF91F2
:10239000EF919F918F910F900BBE0F9008BE0F9001
:1023A0000FBE0F901F9018951F920F920FB60F92AD
:1023B000112408B60F9218BE0BB60F921BBE8F9356
:1023C0009F93EF93FF939091A00A992389F08091B6
:1023D00011238F5F80931123809111238C3311F48B
:1023E00010921123E0911123F0E0EB52FD4D908308
:1023F000FF91EF919F918F910F900BBE0F9008BEB0
:102400000F900FBE0F901F9018951F920F920FB64E
:102410000F92112408B60F9218BE8F9381E080931B
:10242000660680E88093A1098F910F9008BE0F90F7
:102430000FBE0F901F9018951F920F920FB60F921C
:10244000112408B60F9218BE0F9008BE0F900FBE51
:102450000F901F901895EF920F93E12C022F242FCD
:10246000462F6BE871E20E94CA150F91EF90089514
:10247000CF92DF92EF92FF920F931F93CF93DF9350
:10248000EC01F62ED42EC22EC80166E971E20E943C
:10249000E028892B21F481E08093532302C010921D
:1024A0005323E09053230C2D2D2D4F2D63EA71E221
:1024B000CE010E94CA15DF91CF911F910F91FF901D
:1024C000EF90DF90CF900895EF920F93022F20911D
:1024D00053232223C1F0EE24E394242F462F6DEAE8
:1024E00071E20E94CA152FEF87E99AE321508040DC
:1024F0009040E1F700C00000E0915123F091522399
:102500000F91EF901994E12C242F462F65EB71E287
:102510000E94CA150F91EF900895EF920F93EE2449
:10252000E394022F242F462F62EC71E20E94CA1519
:102530002FEF87E99AE3215080409040E1F700C0F7
:102540000000E0914F23F09150230F91EF901994E8
:10255000AF92BF92CF92DF92EF92FF920F931F93B1
:10256000CF93DF93EC01D62EB42EA22E6BEC71E24A
:10257000C8010E94E028892B19F481E0888F0DC0E2
:102580006AED71E2C8010E94E028892B21F482E003
:10259000888F81E002C0188E80E0E88CF12C00E08A
:1025A00010E0C82E2A2D4B2D6D2DCE010E948E15C8
:1025B000DF91CF911F910F91FF90EF90DF90CF901F
:1025C000BF90AF900895CF92EF92FF920F931F9319
:1025D000FC01E08CF12C00E010E0CC24C3940E94BC
:1025E0008E151F910F91FF90EF90CF900895CF928D
:1025F000DF92EF92FF920F931F93CF93DF93CDB7AC
:10260000DEB76497CDBFDEBF6C01162FF42E022F0C
:1026100067E470E2CE0101960E94E928EE24E3947B
:102620002F2D412FBE016F5F7F4FC6010E94CA153B
:102630006496CDBFDEBFDF91CF911F910F91FF90C8
:10264000EF90DF90CF900895CF92DF92EF92FF92BC
:102650000F931F93CF93DF93CDB7DEB76497CDBFB2
:10266000DEBF6C01162FF42E022F6EE370E2CE0156
:1026700001960E94E928EE24E3942F2D412FBE01FC
:102680006F5F7F4FC6010E94CA156496CDBFDEBF43
:10269000DF91CF911F910F91FF90EF90DF90CF903E
:1026A0000895AF92BF92CF92DF92EF92FF920F9375
:1026B0001F93CF93DF93CDB7DEB76197CDBFDEBF5A
:1026C0006C01162FF42E022F9E01205F3F4F809148
:1026D000A4249091A524009711F48AEA94E2A90118
:1026E000481B590BCA019F934F9389E491E29F9332
:1026F0008F93CE0101965C019F938F930E946D2969
:10270000EE24E3942F2D412FB501C6010E94CA1576
:102710000F900F900F900F900F900F906196CDBF7C
:10272000DEBFDF91CF911F910F91FF90EF90DF906F
:10273000CF90BF90AF900895AF92BF92CF92DF92AB
:10274000EF92FF920F931F93CF93DF93EC01D62E5E
:10275000B42EA22EF801E0806E2D8FA598A90E94BC
:10276000FA0AF12C00E010E0CC24C3942A2D4B2D62
:102770006D2DCE010E948E15DF91CF911F910F918B
:10278000FF90EF90DF90CF90BF90AF90089520E73B
:1027900032E2FC0120833183C7960C94910BCF93D6
:1027A000DF93EC010E94C71369E370E0CE01DF9173
:1027B000CF910C94331A2F923F924F925F926F9267
:1027C0007F928F929F92AF92BF92CF92EF92FF92A1
:1027D0000F93CF93DF931F921F92CDB7DEB73C01CB
:1027E0001B0149835A83290180E792E2F301808328
:1027F000918316828EE0E9EFF0E2D30159960190C1
:102800000D928A95E1F7F30117A2C301C7960E94C2
:10281000840BF30127A630AA43A654A6E5A6F6A684
:1028200001ABC2AA85AA96AAA3AAB4AA69817A8191
:10283000C30145960E94E928F30112821382148293
:10284000178282E0858310861186108A118A0F9084
:102850000F90DF91CF910F91FF90EF90CF90BF90AD
:10286000AF909F908F907F906F905F904F903F9030
:102870002F9008958F929F92BF92CF92DF92EF9206
:10288000FF920F931F93CF93DF93CDB7DEB760977F
:10289000CDBFDEBF8C01DC0116968C911697882384
:1028A000D9F11896ED91FC911997CE0101967C0112
:1028B0009F01205E3F4FDC019081818140E1949F28
:1028C000800D112481558D9332962E173F07A1F765
:1028D000B701D8019F968D919C91D0970E943904A1
:1028E000B701F80187A590A90E94740480E090E0E8
:1028F000D7012D917D01D8011896ED91FC91199782
:10290000E80FF91F208301968031910589F7189609
:10291000ED91FC911997108AF80187A1E48181114A
:102920000FC027E0E29FF00111243797D8019B9652
:102930008D919C919C97E80FF91FF380B4800EC095
:10294000BBE0EB9FF00111243B97D8019D968D9140
:102950009C919E97E80FF91FF580B680B3E0FB16B7
:1029600099F0BF1530F0E2E0FE121BC08B2D90E015
:1029700014C0F4E0FF1669F025E0F21212C044E042
:10298000B49EC001112409C08B2D90E0880F991FBF
:1029900004C0A4E0BA9EC00111240E943A246C0134
:1029A0000AC0F1E0FF1609F4AAC026E0F21609F405
:1029B0007DC0C12CD12C62E572E2F8018085918541
:1029C0000E94DC28E12C009709F462C0F3E0FF16B6
:1029D00069F1FF1520F022E0F216B9F04DC044E095
:1029E000F416C1F1A5E0FA1247C04601B4E0EB9E2F
:1029F000800C911C112460E070E00E945B25F401C2
:102A0000608371838283938337C040E050E060E04D
:102A100070E00E94B7266F3F71058105910509F0AE
:102A200058F5F601EE0DF11D608326C040E050E040
:102A300060E070E00E94B72661157105B1E08B0778
:102A40009105D0F4F601EE0DF11DEE0DF11D608340
:102A5000718312C04601E4E0EE9E800C911C1124AB
:102A600040E050E060E070E00E94B726D4016D9332
:102A70007D938D939C93139762E572E280E090E0E2
:102A80000E94DC28E394BE109ECF80E090E09BCFB4
:102A9000C114D104A1F1D80118968D919C91199778
:102AA0000E94D224F801C086D18629C0F80186810F
:102AB000811125C041E050E020E030E02B15F8F412
:102AC000D80118968D919C911997FC01E20FF31F84
:102AD000D901AA0FBB1FA80FB91F6C916154DC016B
:102AE000A40FB51F8C9181548F70B0E16B9F800D46
:102AF000112480832F5F3F4F4E5F5F4FDFCF609683
:102B0000CDBFDEBFDF91CF911F910F91FF90EF906E
:102B1000DF90CF90BF909F908F900895AF92CF920B
:102B2000DF92EF92FF920F931F93362FBC016E5EE0
:102B30007F4FAC2C67017801022F242F432FFC011B
:102B400087A590A90E9492091F910F91FF90EF9085
:102B5000DF90CF90AF900895AF92CF92DF92EF9237
:102B6000FF920F931F93362FBC016E5E7F4FAC2CEC
:102B700067017801022F242F432FFC0187A590A91C
:102B80000E94B30A1F910F91FF90EF90DF90CF90BA
:102B9000AF900895CF92EF920F93342FAC014E5E19
:102BA0005F4FCE2CE02E022F232FFC0187A590A98A
:102BB0000E945D090F91EF90CF900895EF920F93CF
:102BC000362FBC016E5E7F4FE02E022F242F432F45
:102BD000FC0187A590A90E9482090F91EF900895AA
:102BE0006150663040F4E62FF0E0EA59FD4D8081F7
:102BF000811102C006C08FEF849FC00111240C9484
:102C00003A2480E090E00895CF93DF93EC0188852B
:102C10009985009729F00E94D224188619861A8671
:102C20001B868C859D85009729F00E94D2241C86E6
:102C30001D861F86DF91CF910895CF92EF920F935B
:102C40001F93CF93DF93EC018A818E3009F0B4C0DB
:102C50008C81882309F4B0C08F3F49F4EBA5FCA513
:102C60006BA17CA1C12CE1800F81208131C08FA19B
:102C7000813009F447C088F0823009F097C0688538
:102C800079854FE351E28FA598A90E94B707EDA976
:102C9000FEA988859985199589C0CE010E943A14AC
:102CA0008C8197E0899FD001112417972BA53CA513
:102CB000A20FB31F288D12969C911297291780F4AA
:102CC00069A17AA1C12C1196EC9011970F812C91DA
:102CD000AE014E5E5F4F8FA598A90E945D0966C048
:102CE00099A9981708F462C0088519851596ED9181
:102CF000FC91169711962C9111974F816C91CE01F2
:102D0000199554C0CE010E943A14EC818BE0E89FE3
:102D1000F00111243B978DA59EA5E80FF91F858131
:102D2000823071F158F4813091F5468150E0688528
:102D30007985878190850E94F02829C0843089F0A8
:102D4000853029F5A885B9858D919D910D90BC910F
:102D5000A02D0780F085E02D80839183A283B3832B
:102D600016C0A885B9858D919D910D90BC91A02D1F
:102D70000780F085E02D80839183A283B38307C011
:102D80000780F085E02DA885B9858C9180838C81A2
:102D9000EDA5FEA59BE0899FE00DF11D11243B9759
:102DA0000184F285E02D309709F01995CE010E943B
:102DB00004161A821B821C82DF91CF911F910F9102
:102DC000EF90CF900895CF92DF92EF92FF920F9302
:102DD0001F93CF93DF931F92CDB7DEB78C01BE0157
:102DE0006F5F7F4FDC019F968D919C91D0970E94E1
:102DF0006711882309F429C3F801828190E08831A2
:102E0000910508F022C3FC018827E250FF4F8F4F45
:102E10000C94C9228981833209F017C31092592377
:102E20007801F7E3EF0EF11CC7010E94920BD80165
:102E300097961C926981C7010E94A20B81E067C02E
:102E4000D980ED2CF12CC7010E949C28892B11F10F
:102E5000F9E3FD1538F0E29490EFE922D801989655
:102E6000EC9209C0C7010E94B12889838295807FB6
:102E70008057F80180A76981C801C7960E94A20BFC
:102E800082E0A0C2E980CE2CD12CC6010E949C28F1
:102E9000892B19F4F8011282D8C2D8019896FC90B7
:102EA000B9E3BE1530F08E2D8F0D8053F80180A749
:102EB0000AC0C6010E94B128898399EA9F0D890F33
:102EC000D80198968C93F80180A58C3318F7698106
:102ED000C801C7960E94A20B83E074C26981F80101
:102EE00061A762FF07C083E08583C801C7960E947F
:102EF000A20B02C082E08583898181FF04C081E04A
:102F0000F801868303C0D80116961C9284E0F8016C
:102F100082839BC2D80115968C91833029F46981F4
:102F2000C801C7960E94A20B8981F80182A785E09B
:102F3000EFCFD80115968C91833029F46981C801AF
:102F4000C7960E94A20B87E0F801828392A585892B
:102F50004981981304C08689841709F476C2923493
:102F600039F4423529F481E0D80197968C936DC2EB
:102F7000F801128223A934A9F90101900020E9F790
:102F80003197E21BF30B80E0A82FB0E0AE17BF072C
:102F900008F05BC2A20FB31F5C9195132AC0119673
:102FA0005C91541326C082E0F82ED8019796FC92CB
:102FB000979781E014968C9347E361E0C8010E94E3
:102FC000F015F8018087918727E3228722A5DC018D
:102FD0002C930084F185E02D89818183D801189696
:102FE000ED91FC91199712821B96FC921B9787E139
:102FF000EAC18E5FC9CFD80115968C91833029F430
:103000006981C801C7960E94A20B8981F801828B51
:1030100088E07ECFD80115968C91833029F46981A0
:10302000C801C7960E94A20B8981F801838B148A7C
:1030300089E06ECF8981833509F02CCFD8011596B0
:103040008C91833029F463E5C801C7960E94A20BD6
:103050008BE05DCF8CE0D80112968C9312979796F7
:103060008C9181112AC0F12C6801B7E3CB0ED11CE1
:10307000D8019B96ED91FC919C97B7E0FB9EE00DEB
:10308000F11D1124E0809981E91209C0F8018581C0
:10309000833039F46E2DC6010E94A20B02C090E06D
:1030A00002C08E2D91E0F394D801D1962C91F216A6
:1030B00009F441C09923E1F23EC080E0F12C68019F
:1030C000B7E3CB0ED11CD8019D96ED91FC919E9754
:1030D000BF01BBE0FB9E600D711D1124E980FB0167
:1030E000A081B18121E03C91F8019289391320E05F
:1030F00091E011964C91D80153963C91431390E086
:10310000922371F0FB0192819E110AC0D80115969D
:103110008C91833039F46E2DC6010E94A20B02C03F
:1031200090E002C08E2D91E0F394F80122A9F216EE
:1031300011F0992341F2D80113968C9386C18DE04A
:10314000F8018283698167838581833009F07DC1BD
:10315000C801C7960E94A20B78C185E1D8011296DA
:103160008C93129797968C91F12C811131C0680144
:10317000B7E3CB0ED11CD8019B96ED91FC919C97A7
:10318000B7E08B9FE00DF11D11242081D80113962B
:103190009C911397EE24E394E80E29130DC06181EE
:1031A0008981681309C0FE2C15968C91833031F407
:1031B000C6010E94A20B02C090E001C091E08E2DDA
:1031C000F80121A9E21609F44BC09923A1F248C0E5
:1031D00090E06801F7E3CF0ED11CD8019D96ED91E8
:1031E000FC919E97BBE09B9FE00DF11D1124228175
:1031F000D80113968C911397EE24E394E90E2813CB
:1032000024C0938117968C9198131FC0208131811F
:10321000D9019C91D80152968C91981316C0D9016E
:1032200011969C91D80153968C91539798130DC089
:1032300064818981681309C0FE2C15968C918330B6
:1032400031F4C6010E94A20B02C080E001C081E0FF
:103250009E2DF80122A9E21619F0882309F4BDCFAA
:10326000D8011496FC921497F1100CC050961C9241
:10327000509713961C92139714961C9214971296BB
:103280001C92E3C0F80187A181110BC003A4F4A52F
:10329000E02D87E0F89EE00DF11D11243797838122
:1032A0000AC005A4F6A5E02DBBE0FB9EE00DF11DD4
:1032B00011243B9785818823D9F047E361E0C80159
:1032C0000E94F015F80180879187892B41F44FE324
:1032D00051E265E572E287A590A90E94B70787E3EE
:1032E000D8011A968C931A9783E112968C9303C097
:1032F00085E1F8018283D8011B961C921B971F96CB
:103300001C92A3C089818F3309F0C4CDF801858157
:10331000833051F56FE3C801C7960E94A20B82E18A
:1033200051C0F9808F2D90E00E949C28892BC1F11B
:1033300080915923E82FF0E0EC5AFC4DF0828F5F2A
:1033400080935923843008F480C081E0D801159619
:103350008C9364E573E2C801C7960E94D30B813059
:1033600019F08FEFF80184838FE0D1CD6981862F2A
:103370008F7D843519F0663409F08CCDD80115960F
:103380008C91833021F4C801C7960E94A20BF801EA
:10339000138684E1BDCD89818D3061F08A3051F092
:1033A000D80112961C92129714961C92C8010E9482
:1033B00004164BC080E1ABCD89818D3011F08A308D
:1033C00079F78EE0D80112968C933FC0F801858181
:1033D000833029F46981C801C7960E94A20B4981F4
:1033E000D8011B968C911B974C33A9F415969C9190
:1033F0001597933021F492E112969C9303C09FE0BD
:10340000F8019283D8011896ED91FC911997E80F75
:10341000F11D10821AC090E0F801228530E02250A0
:1034200031098217930724F0F80112821382BECF6C
:1034300020853185F901E80FF91F4083D8011B96DB
:103440008C911B978F5F1B968C930F90DF91CF9180
:103450001F910F91FF90EF90DF90CF9008950C9403
:103460003A240C94D2240C94D2248DE0809343000F
:103470008091010480FDFCCF80E190E080930A04FC
:1034800090930B04109208041092090410920C04FB
:1034900010920D0484E08093000482E08093020483
:1034A00008951F920F920FB60F92112408B60F9233
:1034B00018BE09B60F9219BE0BB60F921BBE2F9302
:1034C0003F934F935F936F937F938F939F93AF93AC
:1034D000BF93EF93FF938091E5208130D9F170F194
:1034E0008330D1F52091E9203091EA20232BE1F4BB
:1034F0009091E620911109C02091E7203091E820B9
:103500002093E9203093EA2001C082E08093E520F7
:103510008091EB209091EC20892B31F0E091EB2011
:10352000F091EC2083E019958091E9209091EA20B8
:1035300001978093E9209093EA200EC08091E720C4
:103540009091E8208093E9209093EA2083E0809393
:10355000E52002C01092E520FF91EF91BF91AF915D
:103560009F918F917F916F915F914F913F912F919B
:103570000F900BBE0F9009BE0F9008BE0F900FBEAC
:103580000F901F901895CF93DF93AA27EAE7F2E2F6
:1035900086E8848382E285838EE9868382E287835C
:1035A00080E4809346068093410684E080934E0633
:1035B00080E4809356068091000184688093000126
:1035C000C0E1D1E0E0E2F1E084E28883808383E03F
:1035D0008983818380ED8A83828381E08B838383E7
:1035E000AE83AF83A683A78386E892E28887998714
:1035F000AA878EE992E280879187A2878CE398E080
:103600008C879D87AE8784879587A68780EC80937B
:103610008001A0938801E0E0F8E083E48183A28345
:1036200081E084838DE286ABA7AB86A3A7A3DF915D
:10363000CF910895CF93DF9320910401207311F06F
:1036400081E040C0EAE7F2E2808391836283738382
:10365000408751871286809110018F7D80931001E1
:10366000809120018F7D8093200188279CD08093BA
:103670001401909315018285882399F4809120018B
:1036800080628093200181E08ED08093240190930A
:1036900025018285882329F480911001806280931E
:1036A000100181E08093200810922C088091100175
:1036B00080688093100181E08093000881E080930E
:1036C00090018827DF91CF9108954F935F936F9377
:1036D0007F938F934FB74F9340E151E060E271E0E9
:1036E00088271DD04F914FBF8F917F916F915F9130
:1036F0004F9118954F935F936F937F938F934FB72D
:103700004F9340E251E060E171E081E008D04F91D9
:103710004FBF8F917F916F915F914F9118950F924D
:103720001F922F933F939F93AF93BF93CF93DF93BA
:10373000EF93FF931124EAE7F2E20284002011F5EF
:103740004F935F936F937F932ED07F916F915F9193
:103750004F91EA018C839D830284002021F0EB01CC
:1037600088818F7D8883EA0109800982FF91EF912A
:10377000DF91CF91BF91AF919F913F912F911F907A
:103780000F900895EA0188818F778883EB01888103
:10379000807229F780912C088F3FE1F71092000882
:1037A00010920208E0CF1124DF01880F94E0890F06
:1037B000A80FB11DCD91DD9162817381CB0100967F
:1037C00009F123E030E02817390710F4822F932FF6
:1037D000681B790B62837383A081B18160857185D9
:1037E000CF93DF93EF93FF9313D0FF91EF91A083DB
:1037F000B183BF91AF91CE018A1B9B0B883111F42D
:10380000903029F06FEF688361E062870196089538
:103810003FE04EE1562F572B019794F00D90552322
:1038200021F0FB01E00DF11D049028E0000C20F0D8
:1038300039932A95D9F7F0CF49932A95B9F7ECCF68
:10384000089580910401807309F081E0089520912A
:103850005600382F982F90959223611101C030E0C7
:10386000932B90935600813031F4809168008160F1
:10387000809368000895811105C080916000816087
:103880008093600008958130910599F1823091050F
:1038900009F43FC0892B09F057C08BEC809352008C
:1038A0008DE0809350008091510083FFFCCF809188
:1038B000510082FFFCCFCB0101970F9788F4606C19
:1038C000609355008DE1809350008091510084FFFA
:1038D000FCCF88ED84BF84E0809340008CE106C07B
:1038E00088ED84BF83E0809340008CE0809350009B
:1038F000089585E0809350008091510080FFFCCFB7
:103900008091510082FFFCCF88ED84BF109240006F
:1039100013C087E0809350008091510081FFFCCF5D
:103920008091510082FFFCCF88ED84BF81E08093BD
:10393000400086E080935000442331F020935400EF
:1039400060E080E00C94271C089581E08093BA2009
:1039500008950F93083160F494E0099FF001112459
:10396000EC5BFB4D8083618342832F3F09F023830F
:103970000F910895DF92EF92FF920F931F93CF93D1
:10398000DF93D82F162FF42ED22EC02FCE1548F449
:103990000C2F2D2D4F2D612F8D2F0E94A91CCF5F35
:1039A000F5CFDF91CF911F910F91FF90EF90DF90B6
:1039B0000895EF92FF920F931F93CF93DF93D82F29
:1039C000162FF42EE22EC0E00C2F2E2D4F2D612F3E
:1039D0008D2F0E94A91CCF5FC831B1F7DF91CF9125
:1039E0001F910F91FF90EF900895E4E4F4E298E1C5
:1039F000853108F48383915034969111F9CF08955D
:103A0000E5EEF0E223E130E0529142918417950710
:103A100030F42115310519F021503109F5CF81E03D
:103A2000820F0C94F51CEF92FF920F931F93CF938C
:103A3000DF93CCEFD3E2E0EAF4E280E4E82E84E224
:103A4000F82E04E110E081812381829FC0011124BE
:103A5000B8010E94742268838081289FC0011124CC
:103A6000B8010E94742269838281289FC0011124B9
:103A7000B8010E9474226A8323963497EE16FF06DB
:103A800011F749E054E068E470E08CEF93E20E94A3
:103A90001A1B882339F08FE599E00197F1F700C0F0
:103AA0000000EFCFDF91CF911F910F91FF90EF902A
:103AB000089549E054E068E470E084E494E20E94F0
:103AC0001A1B8111F6CF089581E08093BA200895E2
:103AD000EF920F93CF93DF9326E040E060E080E029
:103AE0000E94D91C6091F5207091F6208091F720FA
:103AF0009091F82020E030E04AE753E40E94F4225D
:103B00000E94ED230E94662316165CF4D62FE62E43
:103B100000E026E040E06FE780E00E94BA1CC8E1C8
:103B20000CC0C8E1C60F88E1E82E0C2F26E040E06B
:103B300060E08FE70E94BA1CD0E06091F1207091A4
:103B4000F2208091F3209091F42020E030E04AE7C9
:103B500053E40E94F4220E94ED230E94662316166D
:103B600064F4C62FCD0FEC2E0D2F26E04FE76FE744
:103B700080E00E94BA1CDC2F09C0062F0C0FEC2E2F
:103B800026E04FE760E080E00E94BA1C6091ED20E3
:103B90007091EE208091EF209091F02020E030E0B5
:103BA0004AE753E40E94F4220E94ED230E94662318
:103BB000161644F4E62E0D2F26E04FE360E78FE75C
:103BC0000E94BA1CDF91CF910F91EF90089526E7E4
:103BD00041E060E070E082E090E00E94431C8CE1F4
:103BE000809301068FEF809305068093210692E073
:103BF0009093410691EB9093610690E49093620656
:103C000090E3909366068093810684E198E0909318
:103C100007062FEF31EE44E0215030404040E1F7FD
:103C200000C00000815099F788E08093050687E086
:103C30008093A200789420E038E448EE51E064E0FC
:103C400083E993E20C94710C8F929F92AF92BF9292
:103C5000CF92EF92FF920F931F93CF93DF93009138
:103C6000BB201091BC2060E070E083E993E20E94E9
:103C70006A0CC3E9D3E280E691E2888399831986CE
:103C80001A8684E48093E02381EE93E20E94840B01
:103C90001092E3231092E4231092FA2385E080939C
:103CA000FB2342E050E0B8018AED93E20E94F02845
:103CB00060E0CE010E94040B60E0CE010E94360B52
:103CC00088EB92E289879A874091BB205091BC2073
:103CD000812C912CA12CB12C83E0C82E99E9E92EDE
:103CE00090E2F92E0AE023E530E2BE018AE593E294
:103CF0000E94DB13DF91CF911F910F91FF90EF9006
:103D0000CF90BF90AF909F908F9008958AE593E2F7
:103D10000E94C71383E993E20C9478030E94E71D85
:103D20006091780002E520E343E583E993E20E9495
:103D30009D080E94351A0E94C31A8091BA208823D8
:103D400031F01092BA200E94681D0E94131D8AE56E
:103D500093E20E94E3168AE593E20E941D16EDCFDE
:103D60002F923F924F925F926F927F928F929F928B
:103D7000AF92BF92CF92DF92EF92FF920F931F9379
:103D8000CF93DF93CDB7DEB76097CDBFDEBF7C01A9
:103D90001B016A01FC0116821782838181FF44C3E3
:103DA0009E012F5F3F4F3901F7019381F10193FD90
:103DB000859193FF81911F01882309F431C38532D6
:103DC00039F493FD859193FF81911F01853239F478
:103DD000B70190E00E94312956016501E5CF10E05E
:103DE000512C912CFFE1F915D8F08B3279F038F491
:103DF000803279F08332A1F4F92DF0612EC08D323A
:103E000061F0803369F4292D21602DC0392D326095
:103E1000932E892D8460982E2AC0E92DE86015C064
:103E200097FC2DC020ED280F2A3088F496FE06C09E
:103E30003AE0139F200D1124122F19C08AE0589EDA
:103E4000200D1124522EE92DE0629E2E10C08E32DC
:103E500031F496FCE5C2F92DF0649F2E08C08C3633
:103E600021F4292D2068922E02C0883641F4F101F8
:103E700093FD859193FF81911F018111B3CF9BEB3E
:103E8000980F933020F4992D9061805E07C09BE9D4
:103E9000980F933008F066C1992D9F7E96FF16E02B
:103EA0009F73992E853619F49064992E08C0863632
:103EB00021F4392F3068932E02C01111115097FE52
:103EC00007C01C3350F444244394410E27E00BC038
:103ED000183038F027E017E005C027E09CE3492EB2
:103EE00002C0212F412C560184E0A80EB11CF6011E
:103EF0006081718182819381042DA3010E94C42776
:103F00006C01F981FC87F0FF02C0F3FF06C091FC51
:103F100006C092FE06C000E205C00DE203C00BE23F
:103F200001C000E08C858C7019F001115AC29BC24F
:103F300097FE10C04C0CFC85F4FF04C08A818133CD
:103F400009F44A94141474F528E0241578F588E0EF
:103F5000482E2CC096FC2AC0812F90E08C159D0520
:103F60009CF03CEFC3163FEFD30674F0892D8068B8
:103F7000982E0AC0E2E0F0E0EC0FFD1FE10FF11D0A
:103F80008081803319F411501111F4CF97FE0EC0C7
:103F900044244394410E812F90E0C816D9062CF496
:103FA0001C1904C04424439401C010E097FE06C0CD
:103FB0001C141D0434F4C601019605C085E090E090
:103FC00002C081E090E001110196112331F0212F10
:103FD00030E02F5F3F4F820F931F252D30E0821777
:103FE000930714F4581A01C0512C892D897049F493
:103FF000552039F0B70180E290E00E9431295A94AF
:10400000F7CF002329F0B701802F90E00E943129DB
:1040100093FC09C0552039F0B70180E390E00E947D
:1040200031295A94F7CF97FE4CC04601D7FE02C003
:10403000812C912CC60188199909F301E80FF91F09
:10404000ED87FE879601241931092F87388B012FC0
:1040500010E01195019511093FEF8316930629F49D
:10406000B7018EE290E00E943129C814D9044CF0C7
:104070008F8598898815990524F4ED85FE858181C1
:1040800001C080E3F1E08F1A91082D853E852F5FF6
:104090003F4F2D873E87801691062CF0B70190E0A8
:1040A0000E943129D9CFC814D90441F49A8196339A
:1040B00020F4953319F43C8534FF81E3B70190E097
:1040C0004EC08A81813319F09C859F7E9C87B70101
:1040D00090E00E943129111105C094FC18C085E6BA
:1040E00090E017C0B7018EE290E00E9431291E5F78
:1040F00082E001E0080FF301E80FF11D8081B701B4
:1041000090E00E943129802F0113F3CFE6CF85E4A0
:1041100090E0B7010E943129D7FC06C0C114D10438
:1041200041F4EC85E4FF05C0D194C194D1088DE23F
:1041300001C08BE2B70190E00E94312980E32AE0C0
:10414000C216D1042CF08F5FFAE0CF1AD108F7CF56
:10415000B70190E00E943129B701C601C0960E94C4
:10416000312954C1833631F0833779F0833509F032
:1041700056C020C0560132E0A30EB11CF60180816A
:10418000898301E010E0630112C05601F2E0AF0E36
:10419000B11CF601C080D18096FE03C0612F70E093
:1041A00002C06FEF7FEFC6010E94FF288C01F92D3E
:1041B000FF7714C0560122E0A20EB11CF601C080A8
:1041C000D18096FE03C0612F70E002C06FEF7FEFD9
:1041D000C6010E94D1288C01F92DF0689F2EF3FDB5
:1041E0001AC0852D90E008171907A8F4B70180E2DE
:1041F00090E00E9431295A94F4CFF60197FC859102
:1042000097FE81916F01B70190E00E943129511012
:104210005A94015011090115110579F7F7C0843638
:1042200011F0893661F5560197FE09C024E0A20E0F
:10423000B11CF60160817181828193810AC0F2E034
:10424000AF0EB11CF60160817181072E000C880B46
:10425000990BF92DFF769F2E97FF09C090958095B9
:10426000709561957F4F8F4F9F4FF0689F2E2AE08A
:1042700030E0A3010E949629C82EC6183FC0092D20
:10428000853721F40F7E2AE030E01DC0097F8F368C
:1042900091F018F4883559F0C3C0803719F0883789
:1042A00011F0BEC0006104FF09C0046007C094FEA5
:1042B00008C0066006C028E030E005C020E130E01C
:1042C00002C020E132E0560107FF09C084E0A80ED9
:1042D000B11CF601608171818281938108C0F2E096
:1042E000AF0EB11CF6016081718180E090E0A30106
:1042F0000E949629C82EC6180F77902E96FE0BC0E6
:10430000092D0E7FC11650F494FE0AC092FC08C01D
:10431000092D0E7E05C0DC2C092D03C0DC2C01C04C
:10432000D12E04FF0DC0FE01EC0DF11D8081803304
:1043300011F4097E09C002FF06C0D394D39404C0CF
:10434000802F867809F0D39403FD11C000FF06C0CA
:104350001C2DD51480F4150D1D190DC0D51458F45D
:10436000B70180E290E00E943129D394F7CFD514B1
:1043700010F45D1801C0512C04FF10C0B70180E398
:1043800090E00E94312902FF17C001FD03C088E7B9
:1043900090E002C088E590E0B7010CC0802F8678DD
:1043A00059F001FF02C08BE201C080E207FD8DE2FF
:1043B000B70190E00E943129C11638F4B70180E3BB
:1043C00090E00E9431291150F7CFCA94F301EC0D0F
:1043D000F11D8081B70190E00E943129C110F5CF15
:1043E00015C0F4E0F51560F584E0581A93FE1FC07F
:1043F000011127C02C8523FF2AC00CEC12E0392DB7
:104400003071932EF8018491811124C0552009F454
:10441000E4CCB70180E290E00E9431295A94F6CFB3
:10442000F7018681978126C08FEF9FEF23C0B701E8
:1044300080E290E00E9431295A945110F8CFD8CFF1
:10444000512CB701802F90E00E943129D3CF00ED8D
:1044500012E0D5CF91108052B70190E00E9431292F
:104460000F5F1F4FCFCF23E0251510F483E0BDCFA2
:10447000512CC0CF6096CDBFDEBFDF91CF911F9191
:104480000F91FF90EF90DF90CF90BF90AF909F90F3
:104490008F907F906F905F904F903F902F900895F6
:1044A000DB018F939F930E94D222BF91AF91A29F75
:1044B000800D911DA39F900DB29F900D1124089522
:1044C000AA1BBB1B51E107C0AA1FBB1FA617B7073A
:1044D00010F0A61BB70B881F991F5A95A9F7809556
:1044E0009095BC01CD01089597FB072E16F400941A
:1044F00007D077FD09D00E94602207FC05D03EF46A
:10450000909581959F4F0895709561957F4F08957F
:10451000A1E21A2EAA1BBB1BFD010DC0AA1FBB1FC7
:10452000EE1FFF1FA217B307E407F50720F0A21B39
:10453000B30BE40BF50B661F771F881F991F1A94A6
:1045400069F760957095809590959B01AC01BD01D0
:10455000CF010895052E97FB1EF400940E94C122FE
:1045600057FD07D00E94882207FC03D04EF40C941C
:10457000C12250954095309521953F4F4F4F5F4F49
:10458000089590958095709561957F4F8F4F9F4FBF
:104590000895EE0FFF1F881F8BBF0790F691E02D47
:1045A0001BBE19940E94E522A59F900DB49F900D0B
:1045B000A49F800D911D11240895B7FF0C94D22261
:1045C0000E94D222821B930B0895A29FB001B39F39
:1045D000C001A39F700D811D1124911DB29F700D0C
:1045E000811D1124911D08950E9408230C94B3236A
:1045F0000E94AC2358F00E94A52340F029F45F3FAD
:1046000029F00C949C2351110C94E7230C94A223C1
:104610000E94C42368F39923B1F3552391F3951BAA
:10462000550BBB27AA2762177307840738F09F5FD3
:104630005F4F220F331F441FAA1FA9F335D00E2E40
:104640003AF0E0E832D091505040E695001CCAF7AD
:104650002BD0FE2F29D0660F771F881FBB1F261770
:1046600037074807AB07B0E809F0BB0B802DBF0147
:10467000FF2793585F4F3AF09E3F510578F00C9416
:104680009C230C94E7235F3FE4F3983ED4F3869594
:1046900077956795B795F7959F5FC9F7880F911D37
:1046A0009695879597F90895E1E0660F771F881F23
:1046B000BB1F621773078407BA0720F0621B730BD6
:1046C000840BBA0BEE1F88F7E09508950E946D23C6
:1046D0006894B1110C94E72308950E94CC2388F0CC
:1046E0009F5798F0B92F9927B751B0F0E1F0660FB6
:1046F000771F881F991F1AF0BA95C9F714C0B130F7
:1047000091F00E94E623B1E008950C94E623672F10
:10471000782F8827B85F39F0B93FCCF38695779525
:104720006795B395D9F73EF490958095709561950E
:104730007F4F8F4F9F4F089597F99F6780E870E0F4
:1047400060E008959FEF80EC089500240A94161607
:10475000170618060906089500240A94121613066F
:10476000140605060895092E0394000C11F48823FD
:1047700052F0BB0F40F4BF2B11F460FF04C06F5F19
:104780007F4F8F4F9F4F089557FD9058440F551FEF
:1047900059F05F3F71F04795880F97FB991F61F0C3
:1047A0009F3F79F087950895121613061406551F3A
:1047B000F2CF4695F1DF08C0161617061806991FA6
:1047C000F1CF86957105610508940895E894BB279B
:1047D00066277727CB0197F908950E94CC23E8F04C
:1047E0009E37E8F09639B8F49E3848F4672F782F52
:1047F0008827985FF9CF8695779567959395953932
:10480000D0F3B62FB1706B0F711D811D20F4879509
:104810007795679593950C9411240C942C240C9403
:10482000E723882371F4772321F09850872B762F84
:1048300007C0662311F499270DC09051862B70E0B4
:1048400060E02AF09A95660F771F881FDAF7880FC5
:104850009695879597F908959F3F31F0915020F4F0
:10486000879577956795B795880F911D969587954C
:1048700097F908950F931F93CF93DF93823091059B
:1048800010F482E090E0E091A624F091A72420E0CB
:1048900030E0A0E0B0E0309719F140815181028111
:1048A000138148175907C8F08417950769F41097C2
:1048B00031F012960C93129713961C9327C0009315
:1048C000A6241093A72422C02115310519F0421700
:1048D000530718F49A01BD01EF01DF01F801DBCFA6
:1048E00021153105F9F0281B390B2430310580F4EE
:1048F0008A819B816115710521F0FB01828393837D
:1049000004C08093A6249093A724FE01329644C04D
:10491000FE01E20FF31F8193919322503109288306
:1049200039833AC02091A4243091A524232B41F44B
:1049300020910220309103202093A4243093A524B9
:1049400020910020309101202115310541F42DB72F
:104950003EB74091042050910520241B350BE09177
:10496000A424F091A524E217F307A0F42E1B3F0B1B
:104970002817390778F0AC014E5F5F4F24173507D1
:1049800048F04E0F5F1F4093A4245093A5248193B9
:10499000919302C0E0E0F0E0CF01DF91CF911F9151
:1049A0000F910895CF93DF93009709F481C0FC0124
:1049B000329712821382A091A624B091A724109757
:1049C00081F420813181820F931F2091A4243091A2
:1049D000A5242817390751F5E093A424F093A524C2
:1049E00067C0ED0120E030E0CE17DF0740F44A81D8
:1049F0005B819E0141155105F1F0EA01F5CFC283BB
:104A0000D38340815181840F951FC817D90759F46A
:104A100088819981840F951F0296808391838A8172
:104A20009B81828393832115310529F4E093A62489
:104A3000F093A7243DC0E901EA83FB834991599192
:104A4000C40FD51FEC17FD0761F480819181840F9D
:104A5000951F0296E90188839983828193818A83D5
:104A60009B83E0E0F0E012968D919C911397009764
:104A700019F0FD01DC01F7CF8D919C9111979D01FB
:104A80002E5F3F4F820F931F2091A4243091A524C5
:104A90002817390769F4309729F41092A624109248
:104AA000A72402C012821382A093A424B093A52449
:104AB000DF91CF9108958F929F92AF92BF92CF9244
:104AC000DF92EF92FF920F931F93CF93DF93EC014E
:104AD0006B016115710519F0FB01808391837E01E3
:104AE000FFEFEF1AFF0A0881802F90E00E94A828AC
:104AF000892B11F0E701F3CF0D3239F47E0182E00A
:104B0000E80EF11C098111E008C00B3229F47E0186
:104B100092E0E90EF11C098110E0E701219743E0E2
:104B200050E06CED72E0CE010E94B928892BC1F4EF
:104B3000239645E050E067ED72E0CE010E94B9286F
:104B4000892B09F42596C114D10419F0F601C0830C
:104B5000D1831111F6C060E070E080E89FE7FAC0F1
:104B600043E050E064ED72E0CE010E94B928892B49
:104B700059F4C114D10409F4E9C0F2E0EF0EF11CBC
:104B8000F601E082F182E2C020E030E0A901C0E05D
:104B9000D0E0F70160EDA62EA00E89E08A1530F175
:104BA000912F9260B92E812F887012FF04C081115D
:104BB00024C0219622C081112197A5E0B0E00E9477
:104BC000D222DC01CB01880F991FAA1FBB1F9C01B9
:104BD000AD012A0D311D411D511D283989E93807C4
:104BE000480789E1580748F0166006C09EEFA912F1
:104BF0000AC013FD40C01860B12E8FEFE81AF80A02
:104C000000811B2DC6CF802F8F7D8534A1F580813B
:104C10008D3211F4106106C08B3221F0319661E0C3
:104C200070E004C08181329662E070E080538A3087
:104C300018F0E61BF70B1FC060E070E060389CE0E6
:104C400079075CF4DB01AA0FBB1FAA0FBB1F6A0F19
:104C50007B1F660F771F680F711D3196DF0111975B
:104C60008C9180538A3050F314FF03C07195619585
:104C70007109C60FD71F11FF08C0C114D10429F054
:104C8000CF010197F60180839183CA01B9010E9487
:104C9000F929212F2370233019F04B015C0106C044
:104CA0004B015C01B7FAB094B7F8B09420E030E063
:104CB000A901C501B4010E94F429882309F43EC06A
:104CC000D7FF06C0D195C195D10903EF12E002C00C
:104CD0000BE013E06801F8E1CF1AD10890E2E92E69
:104CE000F12CCE15DF0574F0F80125913591459131
:104CF0005491C501B4010E945A2A4B015C01CE199E
:104D0000DF09EFCF04501109F594E7940C151D0548
:104D100041F78A2D880F8B2D881F8F3F49F020E0A7
:104D200030E0A901C501B4010E94F429811106C037
:104D300082E290E08093A8249093A924C501B40155
:104D400009C060E070E080E89FEF04C060E070E0C0
:104D500080EC9FE7DF91CF911F910F91FF90EF9033
:104D6000DF90CF90BF90AF909F908F9008953F922B
:104D70004F925F926F927F928F929F92AF92BF926B
:104D8000CF92DF92EF92FF920F931F93CF93DF9317
:104D90005C016B017A016115710519F0FB018083DB
:104DA0009183E114F10429F0C7010297839708F079
:104DB000C9C0E5012196F5011081812F90E00E9484
:104DC000A828892B11F05E01F4CF1D3229F4219619
:104DD000F501118101E007C01B3221F4E5012296A3
:104DE000F501118100E0E114F104B1F0F0E1EF16FA
:104DF000F10429F4B0C010E3E114F10401F12AE058
:104E0000E216F104B1F180E1E816F10471F0E8E096
:104E1000EE16F104F1F413C0103341F588818F7D53
:104E2000883549F7198122960260F0E1EF2EF12CC6
:104E300088248A94982CA82CAFE0BA2E20C078E061
:104E4000E72EF12C88248A94982CA82CEFE1BE2E12
:104E500016C06FEF7FEFCB0197010F2C000C440BB6
:104E6000550B0E94882249015A0109C08AE0E82EA8
:104E7000F12C69E9862E982CA82C69E1B62E40E029
:104E800060E070E0CB0127010F2C000C660877086A
:104E9000FE0150ED352E310E29E0231570F42FEB75
:104EA000210F2A3118F439EC332E06C02FE9210FD7
:104EB0002A3130F529EA322E310E232D30E02E151D
:104EC0003F05F4F44F3FC9F086169706A806B906C9
:104ED00088F0A30192010E945022232D30E040E08F
:104EE00050E0620F731F841F951F621773078407BA
:104EF000950710F44FEF01C041E021961081C8CF13
:104F0000C114D10451F0442311F0219703C001FFD3
:104F100004C02297F601C083D18300FF07C090959B
:104F20008095709561957F4F8F4F9F4F4F3F79F4DC
:104F300082E290E08093A8249093A9243FEF2FEF82
:104F40009FEF0DC040E030E020E090E008C0462F29
:104F5000372F282F04C0103309F067CF5FCF642F9D
:104F6000732F822FDF91CF911F910F91FF90EF90C0
:104F7000DF90CF90BF90AF909F908F907F906F9079
:104F80005F904F903F900895283008F027E0332736
:104F9000DA01990F311D87FD916000966105710559
:104FA00039F432602E5F3D9330E32A95E1F708959E
:104FB0009F3F30F080387105610509F03C5F3C5F30
:104FC0003D93913008F08068911DDF93CF931F933C
:104FD0000F93FF92EF92192F987F9695E92F969550
:104FE0009695E90FFF27E759FC4F99273327EE24C1
:104FF000FF24A701E70105900894079428F4360FD1
:10500000E71EF81E491F511D660F771F881F991F45
:105010000694A1F70590079428F4E70EF81E491F9F
:10502000561FC11D770F881F991F661F0694A1F791
:105030000590079428F4F80E491F561FC71FD11D6D
:10504000880F991F661F771F0694A1F70590079494
:1050500020F4490F561FC71FD81F990F661F771FCF
:10506000881F0694A9F784911095177041F0D69582
:10507000C79557954795F794E7941A95C1F7EFE0D0
:10508000F3E068941590159135916591959105908F
:105090007FE27395E118F10A430B560BC90BD00957
:1050A000C0F7E10CF11E431F561FC91FD01D7EF42F
:1050B000703311F48A95E6CFE894015030F0080F70
:1050C0000AF40027021708F4202F2395022F7A33C1
:1050D00028F079E37D932A95E9F710C07D932A950E
:1050E00089F6069497956795379517951794E11863
:1050F000F10A430B560BC90BD00998F023957E910A
:1051000073957A3308F070E37C932013B8F77E919F
:1051100070617D9330F0839571E37D9370E32A9500
:10512000E1F71124EF90FF900F911F91CF91DF9144
:10513000992787FD9095089591110C94C72A805363
:105140008A5028F0865C806281568650B0F70895B8
:1051500091110C94C72A803219F089508550C8F7F4
:1051600008959111089581548A5108F4805E855AFA
:105170000895FB01DC014150504088F08D9181344D
:105180001CF08B350CF4805E659161341CF06B353E
:105190000CF4605E861B611171F3990B0895881BF6
:1051A000FCCFFC010590615070400110D8F780954C
:1051B00090958E0F9F1F089546EB52E20C940A299A
:1051C000FB01DC018D91019080190110D9F3990B3D
:1051D0000895FB01DC0101900D920020E1F7089594
:1051E000FB01DC014150504048F001900D9200203D
:1051F000C9F701C01D9241505040E0F70895FC01ED
:105200006150704001900110D8F7809590958E0FF5
:105210009F1F0895FA01A191B081009719F410978A
:10522000E1F0CD01DC01CD010D90002011F4C001B1
:1052300013C0FB012191222319F02015D9F7F3CFD8
:10524000FB012191201519F41E92119606C022230C
:10525000C1F70D900020A1F7D001FA01A193B0830E
:1052600008950F931F93CF93DF93FB01238121FDBB
:1052700003C08FEF9FEF2CC022FF16C046815781DD
:10528000248135814217530744F4A081B1819D01E7
:105290002F5F3F4F208331838C93268137812F5F8F
:1052A0003F4F2683378314C08B01EC01FB01008440
:1052B000F185E02D1995892BE1F6D80116968D918F
:1052C0009C911797019616968D939C931797CE01F4
:1052D000DF91CF911F910F9108950F931F93CF935B
:1052E000DF93CDB7DEB72E97CDBFDEBF0E891F8906
:1052F00086E08C8309831A838FEF9FE78D839E83DB
:10530000AE01465E5F4F688D798DCE0101960E9499
:10531000B01EEF81F885E00FF11F10822E96CDBFF1
:10532000DEBFDF91CF911F910F910895FA01AA2757
:10533000283051F1203181F1E8946F936E7F6E5FD8
:105340007F4F8F4F9F4FAF4FB1E03ED0B4E03CD086
:10535000670F781F891F9A1FA11D680F791F8A1F69
:10536000911DA11D6A0F711D811D911DA11D20D0D0
:1053700009F468943F912AE0269F11243019305D8A
:105380003193DEF6CF010895462F4770405D41937B
:10539000B3E00FD0C9F7F6CF462F4F70405D4A33C8
:1053A00018F0495D31FD4052419302D0A9F7EACF90
:1053B000B4E0A6959795879577956795BA95C9F7BF
:1053C00000976105710508959B01AC010A2E0694B2
:1053D0005795479537952795BA95C9F7620F731F6B
:1053E000841F951FA01D08950E94362A08F481E0AD
:1053F0000895E89409C097FB3EF4909580957095C8
:1054000061957F4F8F4F9F4F9923A9F0F92F96E910
:10541000BB279395F695879577956795B795F11185
:10542000F8CFFAF4BB0F11F460FF1BC06F5F7F4F22
:105430008F4F9F4F16C0882311F096E911C0772334
:1054400021F09EE8872F762F05C0662371F096E83D
:10545000862F70E060E02AF09A95660F771F881F0C
:10546000DAF7880F9695879597F90895990F0008B0
:10547000550FAA0BE0E8FEEF16161706E807F90726
:10548000C0F012161306E407F50798F0621B730BC1
:10549000840B950B39F40A2661F0232B242B252B42
:1054A00021F408950A2609F4A140A6958FEF811DE5
:1054B000811D08950E946D2A0C94B3230E94A52398
:1054C00038F00E94AC2320F0952311F00C949C231B
:1054D0000C94A22311240C94E7230E94C42370F39C
:1054E000959FC1F3950F50E0551F629FF001729F89
:1054F000BB27F00DB11D639FAA27F00DB11DAA1F98
:10550000649F6627B00DA11D661F829F2227B00DE4
:10551000A11D621F739FB00DA11D621F839FA00D6F
:10552000611D221F749F3327A00D611D231F849FBF
:10553000600D211D822F762F6A2F11249F57504016
:105540009AF0F1F088234AF0EE0FFF1FBB1F661F91
:10555000771F881F91505040A9F79E3F510580F05A
:105560000C949C230C94E7235F3FE4F3983ED4F320
:10557000869577956795B795F795E7959F5FC1F7FE
:10558000FE2B880F911D9695879597F90895992779
:105590008827089512E0C6E4D2E000E006C0802F1C
:1055A000FE010E94C9222196011DC734D10780E067
:0855B0000807A9F7F894FFCFEA
:1055B8000000AA242000EE764E3A261C12BF5F3F58
:1055C8002F1F170F8F472F2317110B773B271D13FB
:1055D8000E099692B091A0D09003C16B214B050B98
:1055E800CCBCC4ACB49CA4FEE547C537851731399B
:1055F8003A30303A3133004D617220323120323046
:105608003231002D2D0000002B12534101011038BA
:10561800125342010000641253520100008D1253CC
:105628004B000110A812536B000000E31253430211
:105638000000F712535402000024135353000201D0
:105648009C13536D010000511374224542610501FA
:10565800F120A51C74224553610501ED20A51C7499
:10566800224547610501F520A51C017722000000AD
:105678000000000A000F00140028005000A000409D
:105688000180020005000A001400280050000AF0FA
:1056980078788C00A00000F4010000641D00A08C44
:1056A800450080224400803B45E921F72107221369
:1056B800222322372241222166313A002325303223
:1056C8007825632573257325632573257325630062
:1056D800257325730D0A0023253032782563257339
:1056E80025732563257325733C00252E34660042F7
:1056F800520025687500257500256400256C750025
:10570800256C6400256600256C6C640000000000B0
:10571800820B7F02850425303478000A0D0045721B
:1057280072003031323334353637383941424344E8
:1057380045460000000000510C380C4352432D46EA
:1057480065686C657200333426646B6A672B646C19
:10575800323300424C2053746174757300476F7480
:105768006F20424C0057726F6E67205374617475D6
:105778007300446F20526573657400506865362560
:10578800216B64663F2B32615100443D26323761FC
:105798006E6525323464657A006D656D6F727920A7
:1057A8006572726F727300706172616D6574657293
:1057B800206572726F7200756E6B6E6F776E206AFD
:1057C8006F62006E6F207472616E736D69737369B6
:1057D8006F6E00636F6D6D616E64206E6F74206113
:1057E8006C6C6F77656400435243206572726F7208
:1057F800006E6F206163746976652073656E736FE0
:1058080072003B2C0021212121214572726F7221E7
:1058180021212121210001010204040200000000CD
:0A582800C713CF134841005052008F
:00000001FF
